:100000000C94B1000C94CE000C94CE000C94CE0055
:100010000C94CE000C94CE000C94CE000C94CE0028
:100020000C94CE000C94CE000C94CE000C941101D4
:100030000C94CE000C94CE000C94CE000C94CE0008
:100040000C94CE000C94CE000C9490010C94CE0035
:100050000C94CE000C94CE000C94CE000C94CE00E8
:100060000C94CE000C94CE0000407A10F35A00A0FD
:10007000724E18090010A5D4E80000E87648170071
:1000800000E40B54020000CA9A3B000000E1F505B1
:10009000000080969800000040420F000000A086FB
:1000A00001000000102700000000E803000000002D
:1000B0006400000000000A000000000001000000D1
:1000C00000002C76D888DC674F0823DFC1DFAE59EB
:1000D000E1B1B796E5E3E453C63AE651997696E87E
:1000E000E6C28426EB898C9B62ED407C6FFCEFBC02
:1000F0009C9F40F2BAA56FA5F490055A2AF75C932D
:100100006B6CF9676DC11BFCE0E40D47FEF520E662
:10011000B500D0ED902E0300943577050080841E45
:10012000080000204E0A000000C80C333333330FA0
:10013000986E12831141EF8D2114893BE65516CF3D
:10014000FEE6DB18D1844B381BF77C1D901DA4BB49
:10015000E424203284725E228100C9F124ECA1E5FE
:100160003D2711241FBECFEFD8E0DEBFCDBF11E089
:10017000A0E0B1E0E4ECFFE002C005900D92A037F2
:10018000B107D9F721E0A0E7B1E001C01D92AA3F75
:10019000B207E1F70E9445020C94E0070C940000BE
:1001A0009093750180937401709379016093780145
:1001B000529A8091810088608093810080918100B3
:1001C00082608093810080917401909175018230EA
:1001D0009105A1F03CF4009771F00197D9F480EA01
:1001E0009FE014C08430910579F05CF0059791F49C
:1001F00088EC90E00BC080E29EE408C080ED97E0C0
:1002000005C088EE93E002C080E991E090938900F8
:100210008093880080916F00826080936F00789453
:1002200008951F920F920FB60F9211242F933F93B0
:100230008F939F93809176019091770184369105F9
:1002400029F45A9A10927701109276012091760142
:1002500030917701809178019091790128173907C1
:1002600009F45A98809176019091770101969093C4
:100270007701809376019F918F913F912F910F90FD
:100280000FBE0F901F9018958093C4009093C500E7
:10029000E2ECF0E0808183608083E1ECF0E080813B
:1002A00088618083089583E090E00E944401E1EC3E
:1002B000F0E0808180688083789408958093C60000
:1002C0002FEF80E792E0215080409040E1F700C09E
:1002D00000000895FC019191992361F09093C6006C
:1002E0002FEF80E792E0215080409040E1F700C07E
:1002F0000000F1CF089590917A0180917B019817C9
:1003000069F080917B018F5F8F7180937B01E09119
:100310007B01F0E0E458FE4F8081089580E008956D
:100320001F920F920FB60F9211248F939F93EF930A
:10033000FF938091C600E0917A01EF5FEF71909199
:100340007B01E91731F0E0937A01F0E0E458FE4FC9
:100350008083FF91EF919F918F910F900FBE0F902F
:100360001F9018951F93CF93DF93162FEA01EEEBA2
:10037000F1E02081222311F01192FBCFBC018CED22
:1003800091E00E946805ACEDB1E0FD01EC5DF1404B
:100390008D918113FACFE352FE4FAEEBB1E0CD0168
:1003A0008E5B91408C179D071CF481918D93F7CF44
:1003B0008EEB91E0DF91CF911F910895AF92BF92A4
:1003C000CF92DF92EF92FF920F931F93CF93DF9321
:1003D000CDB7DEB728970FB6F894DEBF0FBECDBFFE
:1003E0006C0142E050E063E20E94B2010E944A05C3
:1003F000F82EA92E42E050E06AE2C6010E94B20146
:100400000E944A05082FB92E42E050E06DE2C60175
:100410000E94B2010E944A05182FE92E43E050E0E5
:100420006FE2C6010E94B2010E944A052F2D3A2DAB
:10043000402F5B2D612F7E2D28960FB6F894DEBFDE
:100440000FBECDBFDF91CF911F910F91FF90EF9025
:10045000DF90CF90BF90AF90089590917C00987FEF
:10046000892B80937C0080917A00806480937A004D
:1004700080917A0086FDFCCF6091780070917900C0
:1004800080E090E00E942F040895CF93DF9300D086
:10049000CDB7DEB784B18F6084B985B1807F85B96F
:1004A00080917C00806480937C0080917A008668D3
:1004B00080937A00389A40980E945301559A569A30
:1004C00084B5816084BD84B5826084BD84B5806854
:1004D00084BD84B5806284BD85B5836085BD0E947E
:1004E0007B018823E1F38B3209F0AAC180E091E01F
:1004F0000E94DE012093B5013093B6014093B7010D
:100500005093B8016093B9017093BA018093BB0115
:100510009093BC018091C201833201F58091C501A5
:100520008A32E1F48091C8018D32C1F48091CB010F
:100530008F32A1F482EC91E00E94DE012093B5019C
:100540003093B6014093B7015093B8016093B9015D
:100550007093BA018093BB019093BC018091B50167
:100560009091B6018230910509F40CC18330910558
:1005700009F433C12091720130917301019709F0A0
:100580004AC1232B21F08FE091E00E946A01809103
:10059000B7019091B801892B31F58091B901909103
:1005A000BA01892B69F48091720190917301892BB2
:1005B00021F086E191E00E946A0185B18C7F12C032
:1005C0008091B9019091BA01019769F4809172010B
:1005D00090917301892B21F086E291E00E946A01DB
:1005E00085B1837F85B98091B7019091B80101975A
:1005F00069F58091720190917301892B21F086E356
:1006000091E00E946A018091B9019091BA01892B11
:1006100061F48091720190917301892B21F08CE338
:1006200091E00E946A01289811C08091B9019091CF
:10063000BA01019759F48091720190917301892B4D
:1006400021F083E491E00E946A01289A8091B70129
:100650009091B801029769F58091720190917301B0
:10066000892B21F08AE491E00E946A018091B9010E
:100670009091BA01892B61F480917201909173017C
:10068000892B21F08CE391E00E946A01299811C026
:100690008091B9019091BA01019759F4809172014A
:1006A00090917301892B21F083E491E00E946A010B
:1006B000299A8091B7019091B801039769F58091CB
:1006C000720190917301892B21F080E591E00E94E5
:1006D0006A018091B9019091BA01892B61F48091EE
:1006E000720190917301892B21F08CE391E00E94BB
:1006F0006A012A9811C08091B9019091BA010197BD
:1007000059F48091720190917301892B21F083E457
:1007100091E00E946A012A9A8091B7019091B801F4
:10072000049709F07EC08091720190917301892B2A
:1007300021F086E591E00E946A018091B9019091D3
:10074000BA01892B61F48091720190917301892B18
:1007500021F08CE391E00E946A012B9862C08091A5
:10076000B9019091BA01019709F05BC080917201C3
:1007700090917301892B21F083E491E00E946A013A
:100780002B9A4FC08091720190917301892B21F0B7
:100790008CE591E00E946A0180E090E00E942D02C9
:1007A00020E030E040EA50E40E946C0420E030E0B9
:1007B00040E85AE30E946C048E010F5F1F4F22E055
:1007C00042E00E942A0583E691E00E946A01C80186
:1007D0000E946A0185E691E022C08091B701909164
:1007E000B801059749F46091BB017091BC018091FB
:1007F000B9019091BA010CC08091B7019091B801F4
:10080000069779F46091BB017091BC0185E090E09E
:100810000E94D00006C0232B21F087E691E00E94C1
:100820006A011092710110927001E2ECF1E0ACE902
:10083000B1E011921D9281E0EB3DF807D1F74FCE68
:100840002091700130917101F901EE53FE4F8083C8
:100850002F5F3F4F309371012093700140CEE89499
:1008600009C097FB3EF490958095709561957F4FF8
:100870008F4F9F4F9923A9F0F92F96E9BB279395A6
:10088000F695879577956795B795F111F8CFFAF4B6
:10089000BB0F11F460FF1BC06F5F7F4F8F4F9F4FE7
:1008A00016C0882311F096E911C0772321F09EE845
:1008B000872F762F05C0662371F096E8862F70E0AB
:1008C00060E02AF09A95660F771F881FDAF7880F85
:1008D0009695879597F908950E947F040C94F004EB
:1008E0000E94E20438F00E94E90420F0952311F000
:1008F0000C94D9040C94DF0411240C9424050E9458
:10090000010570F3959FC1F3950F50E0551F629F4D
:10091000F001729FBB27F00DB11D639FAA27F00D58
:10092000B11DAA1F649F6627B00DA11D661F829F7F
:100930002227B00DA11D621F739FB00DA11D621F64
:10094000839FA00D611D221F749F3327A00D611D81
:10095000231F849F600D211D822F762F6A2F112463
:100960009F5750409AF0F1F088234AF0EE0FFF1F96
:10097000BB1F661F771F881F91505040A9F79E3FED
:10098000510580F00C94D9040C9424055F3FE4F3E6
:10099000983ED4F3869577956795B795F795E79543
:1009A0009F5FC1F7FE2B880F911D9695879597F94C
:1009B000089597F99F6780E870E060E008959FEFE1
:1009C00080EC089500240A941616170618060906E6
:1009D000089500240A9412161306140605060895B5
:1009E000092E0394000C11F4882352F0BB0F40F43D
:1009F000BF2B11F460FF04C06F5F7F4F8F4F9F4F7D
:100A0000089557FD9058440F551F59F05F3F71F0FE
:100A10004795880F97FB991F61F09F3F79F0879565
:100A20000895121613061406551FF2CF4695F1DFEE
:100A300008C0161617061806991FF1CF869571057E
:100A4000610508940895E894BB2766277727CB01B2
:100A500097F90895EF920F931F93CF93DF93E801D7
:100A600047FD02C034E001C034E1042E000C550BF8
:100A700057FF03C0519541955109E32E022F242FB2
:100A8000AE010E947705CE01DF91CF911F910F91AA
:100A9000EF900895FC0188279927E894219120324E
:100AA000E9F3293010F02E30C8F32B3241F02D320B
:100AB00039F4689404C00E946F05820F911D219142
:100AC00020532A30C0F31EF4909581959F4F0895CE
:100AD000FB01DC0101900D920020E1F708957AE01E
:100AE000979F902D879F802D910D11240895A9E047
:100AF000B0E0EDE7F5E00C94AF076A01122FB02EDD
:100B00002BE3201720F0FF24F394F00E02C02CE317
:100B1000F22E0F2D27E0AE014F5F5F4F0E94D106EE
:100B2000BC014981842F8970813031F0E1FC06C01D
:100B3000E0FE06C090E205C09DE203C09BE201C05A
:100B400090E05E2D507143FF3CC0911102C083E0E4
:100B500001C084E0811718F4212F281B01C020E078
:100B600051110BC0F601822F30E2882319F0319326
:100B70008150FBCFC20ED11C20E0992329F0D60171
:100B80009C93F60131966F01C6010396E2FE0AC0FE
:100B90003EE4D6013C9341E411964C931197129692
:100BA0003C9306C03EE6F601308341E64183328342
:100BB000FC01322F40E2332309F442C0419331500B
:100BC000FACF42FF44C0911102C083E001C084E02B
:100BD000811718F4212F281B01C020E051110BC0F0
:100BE000F601822F30E2882319F031938150FBCF38
:100BF000C20ED11C20E0992329F0D6019C93F60166
:100C000031966F01C6010396E2FE0BC039E4D601AE
:100C10003C933EE411963C93119736E412963C9334
:100C200007C039E6F60130833EE6318336E632838B
:100C3000FC01322F40E2332319F041933150FBCFB6
:100C4000FC01E20FF11D10828EEF9FEFA6C021E0A4
:100C500030E0911102C020E030E0161617061CF4B7
:100C6000FB01319602C0E1E0F0E02E0F3F1FBB20F8
:100C700021F0EB2DF0E0319602C0E0E0F0E02E0F25
:100C80003F1FE12FF0E02E173F071CF4121B212F0E
:100C900001C020E08E2D887159F4F601822F30E2D8
:100CA000882319F031938150FBCFC20ED11C20E074
:100CB000992329F0D6019C93F60131966F015111C9
:100CC0000BC0F601822F90E3882319F09193815095
:100CD000FBCFC20ED11C20E00F2D060F9A81342FBE
:100CE000307144FF03C0913309F40150101624F40D
:100CF000093018F008E001C001E0AB0177FF02C045
:100D000040E050E0FB01E41BF50BA1E0B0E0AC0FCC
:100D1000BD1FEA0FFB1F8EE2A82E4B01801A91081F
:100D20000B2D10E01195019511094F3FBFEF5B07A7
:100D300021F4D601AC9211966D01641775072CF061
:100D40008416950614F4818101C080E34150510955
:100D50003196D60111967D014017510724F0D60136
:100D60008C936701E2CF6417750739F4963320F44A
:100D7000953319F4311101C081E3F6018083F70145
:100D8000822F90E2882319F091938150FBCFF701D5
:100D9000E20FF11D108280E090E02996ECE00C94C7
:100DA000CB07283008F027E03327DA01990F311DEF
:100DB00087FD916000966105710539F432602E5F00
:100DC0003D9330E32A95E1F708959F3F30F0803856
:100DD0007105610509F03C5F3C5F3D93913008F07F
:100DE0008068911DDF93CF931F930F93FF92EF9233
:100DF000192F987F9695E92F96959695E90FFF27DD
:100E0000EE53FF4F99273327EE24FF24A701E70174
:100E100005900894079428F4360FE71EF81E491F22
:100E2000511D660F771F881F991F0694A1F7059023
:100E3000079428F4E70EF81E491F561FC11D770FAF
:100E4000881F991F661F0694A1F70590079428F440
:100E5000F80E491F561FC71FD11D880F991F661F07
:100E6000771F0694A1F70590079420F4490F561FA9
:100E7000C71FD81F990F661F771F881F0694A9F7F1
:100E800084911095177041F0D695C7955795479561
:100E9000F794E7941A95C1F7E8E6F0E068941590A6
:100EA000159135916591959105907FE27395E118C3
:100EB000F10A430B560BC90BD009C0F7E10CF11E28
:100EC000431F561FC91FD01D7EF4703311F48A953D
:100ED000E6CFE894015030F0080F0AF4002702171B
:100EE00008F4202F2395022F7A3328F079E37D939D
:100EF0002A95E9F710C07D932A9589F6069497956F
:100F00006795379517951794E118F10A430B560B1F
:100F1000C90BD00998F023957E9173957A3308F028
:100F200070E37C932013B8F77E9170617D9330F06D
:100F3000839571E37D9370E32A95E1F71124EF9097
:100F4000FF900F911F91CF91DF91992787FD909589
:100F500008952F923F924F925F926F927F928F925D
:100F60009F92AF92BF92CF92DF92EF92FF920F9338
:100F70001F93CF93DF93CDB7DEB7CA1BDB0B0FB642
:100F8000F894DEBF0FBECDBF09942A8839884888FF
:100F90005F846E847D848C849B84AA84B984C88495
:100FA000DF80EE80FD800C811B81AA81B981CE0F8C
:100FB000D11D0FB6F894DEBF0FBECDBFED01089571
:040FC000F894FFCFD3
:100FC4002330302A30302D30302F3030302B004356
:100FD40041534520310052455345542046554E4B0C
:100FE400434A4920310052455345542046554E4BFF
:100FF400434A4920320050494E2031005354414E57
:101004002030005354414E20310050494E203200CC
:1010140050494E20330050494E203400434153453B
:1010240020320050000A0044454641554C5400000B
:00000001FF
